:060000000A128A11EE2F26
:100C3C003F3406345B344F3466346D347D340734C2
:100C4C007F346F347E088A007F0882000A128A1172
:100C5C0028260A128A118000840A04087D060319CA
:100C6C000034FF0A0319FE0A2C2EFD01FB1F3F2E38
:100C7C00402E472EFA09FB09FA0A0319FB0A013028
:100C8C00FD00F91F4A2E4B2E502EF809F909F80ACF
:100C9C000319F90A780879040319552E562E832E58
:100CAC000130FC00622E01300310F80DF90DFF3EEF
:100CBC00031D5A2E0130FC07F91F652E662E592E86
:100CCC0079087B02031D6C2E78087A02031C6F2EA8
:100CDC00702E762E7808FA027908031CFB03FB02AF
:100CEC0001300310F90CF80CFF3E031D772E013078
:100CFC00FC02031D822E832E662E7D080319872E7F
:100D0C00882E8D2EFA09FB09FA0A0319FB0A7B08B7
:100D1C00F9007A08F8000800F501F11F962E972EBD
:100D2C009E2EF009F109F00A0319F10A0130F500C1
:100D3C00F31FA12EA22EA92EF209F309F20A031910
:100D4C00F30A0130F506F601F70170087104031976
:100D5C00B02EB12EE62E0130F400BD2E0130031062
:100D6C00F00DF10DFF3E031DB52E0130F407F11F00
:100D7C00C02EC12EB42E01300310F60DF70DFF3E20
:100D8C00031DC22E71087302031DCE2E7008720251
:100D9C00031CD12ED22ED92E7008F2027108031C1E
:100DAC00F303F302761401300310F10CF00CFF3E48
:100DBC00031DDA2E0130F402031DE52EE62EC12EA2
:100DCC0075080319EA2EEB2EF02EF609F709F60A30
:100DDC000319F70A7708F1007608F000080083166B
:100DEC0003138801870183120313AC01AD010A3090
:100DFC00F8000030F900E830F0000330F1002D0865
:100E0C00F3002C08F2000A128A1192260A128A1197
:100E1C007108FB007008FA000A128A113B260A12AC
:100E2C008A11790883120313A3007808A2000A30F0
:100E3C00F8000030F9006430F0000030F1002D08AB
:100E4C00F3002C08F2000A128A1192260A128A1157
:100E5C007108FB007008FA000A128A113B260A126C
:100E6C008A11790883120313A5007808A4000A30AC
:100E7C00F8000030F9000A30F0000030F1002D08C5
:100E8C00F3002C08F2000A128A1192260A128A1117
:100E9C007108FB007008FA000A128A113B260A122C
:100EAC008A11790883120313A7007808A6000A3068
:100EBC00F8000030F9002D08FB002C08FA000A128B
:100ECC008A113B260A128A11790883120313A9008E
:100EDC007808A800AA01AB01FD3083120313870028
:100EEC0028082E3E840083130008880003308312E8
:100EFC000313A1009730A000A00B822FA10B822F0F
:100F0C00FE3083120313870026082E3E84008313C1
:100F1C0000088800033083120313A1009730A0004F
:100F2C00A00B962FA10B962FFB3083120313870077
:100F3C0024082E3E8400831300088800033083129B
:100F4C000313A1009730A000A00BAA2FA10BAA2F6E
:100F5C00F73083120313870022082E3E840083137C
:100F6C0000088800033083120313A1009730A000FF
:100F7C00A00BBE2FA10BBE2F013083120313AA07A7
:100F8C000318AB0A0030AB072B08803AFF00803007
:100F9C007F02031DD32F0A302A02031CD62FD72F12
:100FAC00722F013083120313AC070318AD0A003003
:100FBC00AD0710302C06273003192D06031DE72F23
:100FCC00E82FFD2EAC01AD01FD2E0A128A1100286E
:100FDC0083133830FD000630FE001E30FF002E302B
:100FEC0084000A128A112C260A128A1183010A1211
:040FFC008A11F52E33
:04400E00F12FFF3F50
:00000001FF
