:060000000A128A11EE2F26
:100D2E003F3406345B344F3466346D347D340734CF
:100D3E007F346F347E088A007F0882000A128A117F
:100D4E00A1260A128A118000840A04087D0603195E
:100D5E000034FF0A0319FE0AA52EF501F31FB82E63
:100D6E00B92EC02EF209F309F20A0319F30A013063
:100D7E00F500F11FC32EC42EC92EF009F109F00A99
:100D8E000319F10A700871040319CE2ECF2EFC2E12
:100D9E000130F400DB2E01300310F00DF10DFF3E9B
:100DAE00031DD32E0130F407F11FDE2EDF2ED22EBF
:100DBE0071087302031DE52E70087202031CE82EE3
:100DCE00E92EEF2E7008F2027108031CF303F302F2
:100DDE0001300310F10CF00CFF3E031DF02E01301C
:100DEE00F402031DFB2EFC2EDF2E75080319002FB7
:100DFE00012F062FF209F309F20A0319F30A7308F9
:100E0E00F1007208F0000800F501F11F0F2F102FEE
:100E1E00172FF009F109F00A0319F10A0130F50054
:100E2E00F31F1A2F1B2F222FF209F309F20A0319AF
:100E3E00F30A0130F506F601F70170087104031983
:100E4E00292F2A2F5F2F0130F400362F0130031087
:100E5E00F00DF10DFF3E031D2E2F0130F407F11F93
:100E6E00392F3A2F2D2F01300310F60DF70DFF3EBF
:100E7E00031D3B2F71087302031D472F700872026A
:100E8E00031C4A2F4B2F522F7008F2027108031CBD
:100E9E00F303F302761401300310F10CF00CFF3E55
:100EAE00031D532F0130F402031D5E2F5F2F3A2FC7
:100EBE0075080319632F642F692FF609F709F60ACF
:100ECE000319F70A7708F1007608F0000800831678
:100EDE0003138801870183120313B001B1010A3095
:100EEE00F0000030F1003108F3003008F2000A1271
:100EFE008A110B270A128A11710883120313AB0091
:100F0E007008AA000A30F0000030F1003108F3003A
:100F1E003008F2000A128A11B4260A128A117108D8
:100F2E0083120313AD007008AC00AE01AF01FD30AB
:100F3E008312031387002C08203E840083130008BD
:100F4E0088000330F9009730F800F80BAC2FF90B3E
:100F5E00AC2FB12FFE308312031387002A08203ED8
:100F6E0084008313000888000330F9009730F800DE
:100F7E00F80BBF2FF90BBF2FC42F013083120313B1
:100F8E00AE070318AF0A0030AF072F08803AFF00F4
:100F9E0080307F02031DD52F64302E02031CD82F04
:100FAE00D92F9E2F013083120313B0070318B10AF5
:100FBE000030B107643030063104031DE72FE82FEF
:100FCE00762FB001B101762F0A128A1100288313F1
:100FDE002A30FD000630FE009730FF0020308400DE
:100FEE000A128A11A5260A128A1183010A128A117F
:020FFE006E2F54
:04400E00F12FFF3F50
:00000001FF
