:060000000A128A110C280F
:10000800FE00030EF0000A08F1000A128A11FE2908
:100018000A128A110F2883133C30FD000230FE00BB
:100028002730FF00313084000A128A1118220A1280
:100038008A1183010A128A1121288316031788015D
:1000480089018316031301087F398100FF30860078
:1000580087018801831203138601FF308700880116
:10006800AF01B0018B170B168B1083160313011306
:100078000A3083120313A0000030A100E830F20018
:100088000330F3003008F5002F08F4000A128A1133
:1000980042210A128A11730883120313A3007208FB
:1000A800A2000A128A11A5210A128A1183120313C7
:1000B8002108A7002008A6000A30A0000030A100EF
:1000C8006430F2000030F3003008F5002F08F40027
:1000D8000A128A1142210A128A1173088312031321
:1000E800A3007208A2000A128A11A5210A128A1115
:1000F800831203132108A9002008A8000A30A000D1
:100108000030A1000A30F2000030F3003008F5009A
:100118002F08F4000A128A1142210A128A11730860
:1001280083120313A3007208A2000A128A11A521E0
:100138000A128A11831203132108AB002008AA00AF
:100148000A30A0000030A1003008A3002F08A20048
:100158000A128A11A5210A128A118312031321088F
:10016800AD002008AC00AE01FD3087002C08313E00
:100178008400831300088800033083120313A5004A
:100188009730A400A40BC628A50BC628FE308312FE
:10019800031387002A08313E84008313000888006F
:1001A800033083120313A5009730A400A40BDA28A8
:1001B800A50BDA28FB308312031387002808313E89
:1001C8008400831300088800033083120313A500FA
:1001D8009730A400A40BEE28A50BEE28F730831265
:1001E800031387002608313E840083130008880023
:1001F800033083120313A5009730A400A40B02292F
:10020800A50B0229013083120313AE070A302E0210
:10021800031C0F291029B8283B080319142915298C
:100228002D290130AF070318B00A0030B007300895
:10023800803AFF00A7307F02031D242910302F02C7
:10024800031C272928293C2883120313AF01B00176
:100258003C282F083004031D3229332938290F3050
:10026800AF002730B0003C28FF30AF070318B00AB2
:10027800FF30B0073C280A128A110C28F701F31F37
:10028800462947294E29F209F309F20A0319F30A04
:100298000130F700F51F512952295929F409F509A8
:1002A800F40A0319F50A0130F706F801F901720892
:1002B800730403196029612996290130F6006D2914
:1002C80001300310F20DF30DFF3E031D65290130C7
:1002D800F607F31F70297129642901300310F80DFE
:1002E800F90DFF3E031D722973087502031D7E294F
:1002F80072087402031C8129822989297208F40270
:100308007308031CF503F502781401300310F30C8D
:10031800F20CFF3E031D8A290130F602031D9529C0
:1003280096297129770803199A299B29A029F80980
:10033800F909F80A0319F90A7908F3007808F200AC
:100348000800FB0183120313A31FAB29AC29B329AF
:10035800A209A309A20A0319A30A0130FB00A11FDD
:10036800B629B729BC29A009A109A00A0319A10A1D
:10037800200821040319C129C229EF290130FA00F4
:10038800CE2901300310A00DA10DFF3E031DC62983
:100398000130FA07A11FD129D229C5292108230232
:1003A800031DD82920082202031CDB29DC29E229A5
:1003B8002008A2022108031CA303A3020130031092
:1003C800A10CA00CFF3E031DE3290130FA02031D16
:1003D800EE29EF29D2297B080319F329F429F929F1
:1003E800A209A309A20A0319A30A2308A100220843
:1003F800A00008008B1C012A022A0D2A831203136D
:100408003B080319082A0A2A01300B2A0030BB00CE
:100418008B1071088A00700E8300FE0E7E0E090094
:100428007E088A007F0882000A128A1114220A12A2
:100438008A118000840A04087D0603190034FF0A23
:100448000319FE0A182A3F3406345B344F346634E5
:0C0458006D347D3407347F346F34013480
:04400E00F12FFF3F50
:00000001FF
